:020000040000FA
:1000000025000504FC0C0600000C3400010C350032
:10001000020C3600030C3700040C380011093900BB
:100020001A0A4606140A170A660601080208660636
:10003000030804081902950043063B0A19029600BA
:1000400043062A0A1902970043062A0A1902980051
:1000500043063B0A0A0C0605260446090A0C060458
:10006000260546090E0A020C060526044609060462
:10007000260546090E0A060526050E0A0A0C06057F
:10008000260546090604260446090E0A3200640CB9
:100090003000C80C310000000000F1024B0AF002F1
:0800A000490AF202470A0008B8
:0400A8000008000844
:021FFE00EB0FE7
:00000001FF
