:020000040000FA
:1000000025000504FC0C0600000C3400010C350032
:10001000020C3600030C3700040C38001009190AD2
:100020004606130A160A6606010802086606030851
:10003000040895004306360A960043062E0A9700E8
:100040004306390A98004306250A0A0C06052604C9
:1000500041090A0C0604260541090E0A020C060590
:10006000260441090604260541090E0A060526054F
:100070000E0A0A0C06052605410906042604410954
:100080000E0A3200640C3000C80C31000000000081
:0E009000F102460AF002440AF202420A000897
:02009E00000858
:0200A000000856
:021FFE00EB0FE7
:00000001FF
