:100000000428FF3FFF3FFF3F9720831685010730FD
:1000100083128500831686018312860185011A30BA
:10002000CC00FF30CB00FF30CA00CC0B18281F28B3
:10003000CB0B1B281E28CA0B1B28182815287F301D
:10004000CB00FF30CA00CB0B26282928CA0B262854
:1000500023285830CA00CA0B2B28000000000230A9
:1000600085001A30CC00FF30CB00FF30CA00CC0B2B
:100070003A284128CB0B3D284028CA0B3D283A2876
:1000800037287F30CB00FF30CA00CB0B48284B28E5
:10009000CA0B482845285830CA00CA0B4D28000012
:1000A0000000023085001A30CC00FF30CB00FF305A
:1000B000CA00CC0B5C286328CB0B5F286228CA0BD4
:1000C0005F285C2859287F30CB00FF30CA00CB0B5B
:1000D0006A286D28CA0B6A2867285830CA00CA0BDC
:1000E0006F2800000000013085001A30CC00FF307E
:1000F000CB00FF30CA00CC0B7E288528CB0B812893
:100100008428CA0B81287E287B287F30CB00FF30D3
:10011000CA00CB0B8C288F28CA0B8C288928583012
:10012000CA00CA0B9128000000000E289628103043
:10013000031383128C0027308D000A308E000030AC
:100140008F000800FF3FFF3FFF3FFF3FFF3FFF3FA4
:02400E00F63F7B
:00000001FF
